{
  "_format": "hh-sol-artifact-1",
  "contractName": "Vendor",
  "sourceName": "contracts/Vendor.sol",
  "abi": [
    {
      "inputs": [
        {
          "internalType": "address",
          "name": "tokenAddress",
          "type": "address"
        }
      ],
      "stateMutability": "nonpayable",
      "type": "constructor"
    },
    {
      "inputs": [],
      "name": "buyToken",
      "outputs": [],
      "stateMutability": "payable",
      "type": "function"
    }
  ],
  "bytecode": "0x608060405234801561001057600080fd5b5060405161014a38038061014a8339818101604052602081101561003357600080fd5b5051600080546001600160a01b039092166001600160a01b031990921691909117905560e6806100646000396000f3fe608060405260043610601c5760003560e01c8063a4821719146021575b600080fd5b60276029565b005b600080546040805163a9059cbb60e01b815233600482015234602482015290516001600160a01b039092169263a9059cbb926044808401936020939083900390910190829087803b158015607c57600080fd5b505af1158015608f573d6000803e3d6000fd5b505050506040513d602081101560a457600080fd5b505160ae57600080fd5b56fea2646970667358221220dbe2c392556b639616435cab26f85c85118f0bd4613b6ed64ff0c1452c1077c664736f6c63430006070033",
  "linkReferences": {},
  "deployedLinkReferences": {}
}